{
  "_format": "hh-sol-artifact-1",
  "contractName": "DocumentVault",
  "sourceName": "contracts/DocumentVault.sol",
  "abi": [
    {
      "inputs": [],
      "stateMutability": "nonpayable",
      "type": "constructor"
    },
    {
      "anonymous": false,
      "inputs": [
        {
          "indexed": true,
          "internalType": "string",
          "name": "hash",
          "type": "string"
        },
        {
          "indexed": true,
          "internalType": "address",
          "name": "owner",
          "type": "address"
        }
      ],
      "name": "HashStored",
      "type": "event"
    },
    {
      "anonymous": false,
      "inputs": [
        {
          "indexed": true,
          "internalType": "string",
          "name": "hash",
          "type": "string"
        },
        {
          "indexed": true,
          "internalType": "address",
          "name": "registrar",
          "type": "address"
        }
      ],
      "name": "PropertyApproved",
      "type": "event"
    },
    {
      "anonymous": false,
      "inputs": [
        {
          "indexed": false,
          "internalType": "address",
          "name": "registrar",
          "type": "address"
        },
        {
          "indexed": false,
          "internalType": "string",
          "name": "hash",
          "type": "string"
        }
      ],
      "name": "PropertyApproved",
      "type": "event"
    },
    {
      "anonymous": false,
      "inputs": [
        {
          "indexed": false,
          "internalType": "address",
          "name": "owner",
          "type": "address"
        },
        {
          "indexed": false,
          "internalType": "string",
          "name": "hash",
          "type": "string"
        }
      ],
      "name": "PropertyRegistered",
      "type": "event"
    },
    {
      "anonymous": false,
      "inputs": [
        {
          "indexed": false,
          "internalType": "address",
          "name": "from",
          "type": "address"
        },
        {
          "indexed": false,
          "internalType": "address",
          "name": "to",
          "type": "address"
        },
        {
          "indexed": false,
          "internalType": "string",
          "name": "hash",
          "type": "string"
        }
      ],
      "name": "PropertyTransferred",
      "type": "event"
    },
    {
      "anonymous": false,
      "inputs": [
        {
          "indexed": true,
          "internalType": "address",
          "name": "registrar",
          "type": "address"
        }
      ],
      "name": "RegistrarAdded",
      "type": "event"
    },
    {
      "anonymous": false,
      "inputs": [
        {
          "indexed": true,
          "internalType": "address",
          "name": "registrar",
          "type": "address"
        }
      ],
      "name": "RegistrarRemoved",
      "type": "event"
    },
    {
      "inputs": [
        {
          "internalType": "address",
          "name": "registrar",
          "type": "address"
        }
      ],
      "name": "addRegistrar",
      "outputs": [],
      "stateMutability": "nonpayable",
      "type": "function"
    },
    {
      "inputs": [],
      "name": "admin",
      "outputs": [
        {
          "internalType": "address",
          "name": "",
          "type": "address"
        }
      ],
      "stateMutability": "view",
      "type": "function"
    },
    {
      "inputs": [
        {
          "internalType": "uint256",
          "name": "",
          "type": "uint256"
        }
      ],
      "name": "allPropertyHashes",
      "outputs": [
        {
          "internalType": "string",
          "name": "",
          "type": "string"
        }
      ],
      "stateMutability": "view",
      "type": "function"
    },
    {
      "inputs": [
        {
          "internalType": "string",
          "name": "hash",
          "type": "string"
        }
      ],
      "name": "approveProperty",
      "outputs": [],
      "stateMutability": "nonpayable",
      "type": "function"
    },
    {
      "inputs": [
        {
          "internalType": "string",
          "name": "",
          "type": "string"
        }
      ],
      "name": "documentOwner",
      "outputs": [
        {
          "internalType": "address",
          "name": "",
          "type": "address"
        }
      ],
      "stateMutability": "view",
      "type": "function"
    },
    {
      "inputs": [],
      "name": "getAllProperties",
      "outputs": [
        {
          "internalType": "string[]",
          "name": "",
          "type": "string[]"
        }
      ],
      "stateMutability": "view",
      "type": "function"
    },
    {
      "inputs": [
        {
          "internalType": "string",
          "name": "hash",
          "type": "string"
        }
      ],
      "name": "getOwner",
      "outputs": [
        {
          "internalType": "address",
          "name": "",
          "type": "address"
        }
      ],
      "stateMutability": "view",
      "type": "function"
    },
    {
      "inputs": [
        {
          "internalType": "string",
          "name": "hash",
          "type": "string"
        }
      ],
      "name": "getPropertyHistory",
      "outputs": [
        {
          "components": [
            {
              "internalType": "address",
              "name": "from",
              "type": "address"
            },
            {
              "internalType": "address",
              "name": "to",
              "type": "address"
            },
            {
              "internalType": "uint256",
              "name": "timestamp",
              "type": "uint256"
            }
          ],
          "internalType": "struct DocumentVault.TransferRecord[]",
          "name": "",
          "type": "tuple[]"
        }
      ],
      "stateMutability": "view",
      "type": "function"
    },
    {
      "inputs": [
        {
          "internalType": "string",
          "name": "",
          "type": "string"
        }
      ],
      "name": "properties",
      "outputs": [
        {
          "internalType": "address",
          "name": "owner",
          "type": "address"
        },
        {
          "internalType": "string",
          "name": "hash",
          "type": "string"
        },
        {
          "internalType": "bool",
          "name": "verified",
          "type": "bool"
        }
      ],
      "stateMutability": "view",
      "type": "function"
    },
    {
      "inputs": [
        {
          "internalType": "string",
          "name": "",
          "type": "string"
        },
        {
          "internalType": "uint256",
          "name": "",
          "type": "uint256"
        }
      ],
      "name": "propertyHistory",
      "outputs": [
        {
          "internalType": "address",
          "name": "from",
          "type": "address"
        },
        {
          "internalType": "address",
          "name": "to",
          "type": "address"
        },
        {
          "internalType": "uint256",
          "name": "timestamp",
          "type": "uint256"
        }
      ],
      "stateMutability": "view",
      "type": "function"
    },
    {
      "inputs": [
        {
          "internalType": "string",
          "name": "hash",
          "type": "string"
        }
      ],
      "name": "registerProperty",
      "outputs": [],
      "stateMutability": "nonpayable",
      "type": "function"
    },
    {
      "inputs": [
        {
          "internalType": "address",
          "name": "",
          "type": "address"
        }
      ],
      "name": "registrars",
      "outputs": [
        {
          "internalType": "bool",
          "name": "",
          "type": "bool"
        }
      ],
      "stateMutability": "view",
      "type": "function"
    },
    {
      "inputs": [
        {
          "internalType": "address",
          "name": "registrar",
          "type": "address"
        }
      ],
      "name": "removeRegistrar",
      "outputs": [],
      "stateMutability": "nonpayable",
      "type": "function"
    },
    {
      "inputs": [
        {
          "internalType": "string",
          "name": "_hash",
          "type": "string"
        }
      ],
      "name": "storeHash",
      "outputs": [],
      "stateMutability": "nonpayable",
      "type": "function"
    },
    {
      "inputs": [
        {
          "internalType": "string",
          "name": "hash",
          "type": "string"
        },
        {
          "internalType": "address",
          "name": "newOwner",
          "type": "address"
        }
      ],
      "name": "transferProperty",
      "outputs": [],
      "stateMutability": "nonpayable",
      "type": "function"
    },
    {
      "inputs": [
        {
          "internalType": "string",
          "name": "_hash",
          "type": "string"
        }
      ],
      "name": "verifyHash",
      "outputs": [
        {
          "internalType": "bool",
          "name": "",
          "type": "bool"
        }
      ],
      "stateMutability": "view",
      "type": "function"
    },
    {
      "inputs": [
        {
          "internalType": "string",
          "name": "hash",
          "type": "string"
        }
      ],
      "name": "verifyProperty",
      "outputs": [
        {
          "internalType": "bool",
          "name": "",
          "type": "bool"
        }
      ],
      "stateMutability": "view",
      "type": "function"
    }
  ],
  "bytecode": "0x608060405234801561001057600080fd5b50600080546001600160a01b0319163390811782558152600260205260409020805460ff191660011790556116038061004a6000396000f3fe608060405234801561001057600080fd5b506004361061010b5760003560e01c80639be8f2a6116100a2578063d2675d5911610071578063d2675d591461027b578063e1af688a1461028e578063f64f7fb2146102ae578063f851a440146102c1578063fb81abaa146102d457600080fd5b80639be8f2a6146101fa578063af92a6931461021c578063ba904eed1461022f578063c9dfa3dc1461024257600080fd5b806371dc61cb116100de57806371dc61cb1461019c57806386fb2813146101b157806389aeca76146101c457806396530199146101e757600080fd5b806308176630146101105780633d51402c146101395780634aaf4a121461014e57806354f2b93f14610179575b600080fd5b61012361011e366004611188565b610308565b60405161013091906111c5565b60405180910390f35b6101416103ad565b604051610130919061127a565b61016161015c366004611188565b610486565b6040516001600160a01b039091168152602001610130565b61018c610187366004611188565b6104b7565b6040519015158152602001610130565b6101af6101aa366004611188565b6104e5565b005b61018c6101bf366004611188565b6104f1565b61018c6101d23660046112f8565b60026020526000908152604090205460ff1681565b6101af6101f5366004611188565b61052e565b61020d610208366004611188565b6106a7565b6040516101309392919061131a565b6101af61022a3660046112f8565b61076e565b6101af61023d3660046112f8565b61084b565b610255610250366004611350565b610979565b604080516001600160a01b03948516815293909216602084015290820152606001610130565b6101af610289366004611188565b6109d5565b6102a161029c366004611395565b610d08565b60405161013091906113ae565b6101af6102bc3660046113c1565b610db4565b600054610161906001600160a01b031681565b6101616102e2366004611188565b80516020818301810180516005825292820191909301209152546001600160a01b031681565b606060038260405161031a919061140f565b9081526020016040518091039020805480602002602001604051908101604052809291908181526020016000905b828210156103a2576000848152602090819020604080516060810182526003860290920180546001600160a01b03908116845260018083015490911684860152600290910154918301919091529083529092019101610348565b505050509050919050565b60606004805480602002602001604051908101604052809291908181526020016000905b8282101561047d5783829060005260206000200180546103f09061142b565b80601f016020809104026020016040519081016040528092919081815260200182805461041c9061142b565b80156104695780601f1061043e57610100808354040283529160200191610469565b820191906000526020600020905b81548152906001019060200180831161044c57829003601f168201915b5050505050815260200190600101906103d1565b50505050905090565b6000600182604051610498919061140f565b908152604051908190036020019020546001600160a01b031692915050565b60006001826040516104c9919061140f565b9081526040519081900360200190206002015460ff1692915050565b6104ee816109d5565b50565b6000806001600160a01b031660018360405161050d919061140f565b908152604051908190036020019020546001600160a01b0316141592915050565b3360009081526002602052604090205460ff166105835760405162461bcd60e51b815260206004820152600e60248201526d27b7363c903932b3b4b9ba3930b960911b60448201526064015b60405180910390fd5b60006001600160a01b031660018260405161059e919061140f565b908152604051908190036020019020546001600160a01b0316036105f95760405162461bcd60e51b8152602060048201526012602482015271141c9bdc195c9d1e481b9bdd08199bdd5b9960721b604482015260640161057a565b6001808260405161060a919061140f565b908152604051908190036020018120600201805492151560ff1990931692909217909155339061063b90839061140f565b604051908190038120907f1d05f4b17eca36b14c47ff607cab46ba39f1673889940e353f2d68c6e721af4590600090a37fef1928890e33932168f739e800ff36ea0e14fef1c7d917e0c63b59c401c4ea5e338260405161069c929190611465565b60405180910390a150565b805160208183018101805160018083529383019290940191909120929052815490820180546001600160a01b0390921692916106e29061142b565b80601f016020809104026020016040519081016040528092919081815260200182805461070e9061142b565b801561075b5780601f106107305761010080835404028352916020019161075b565b820191906000526020600020905b81548152906001019060200180831161073e57829003601f168201915b5050506002909301549192505060ff1683565b6000546001600160a01b031633146107b55760405162461bcd60e51b815260206004820152600a60248201526927b7363c9030b236b4b760b11b604482015260640161057a565b6001600160a01b0381166107ff5760405162461bcd60e51b815260206004820152601160248201527024b73b30b634b2103932b3b4b9ba3930b960791b604482015260640161057a565b6001600160a01b038116600081815260026020526040808220805460ff19166001179055517f5c38ce8ff8864a9d2a5ff5aec72a88770e38d181dea59173fde1247cdaa1aea39190a250565b6000546001600160a01b031633146108925760405162461bcd60e51b815260206004820152600a60248201526927b7363c9030b236b4b760b11b604482015260640161057a565b6001600160a01b0381166108dc5760405162461bcd60e51b815260206004820152601160248201527024b73b30b634b2103932b3b4b9ba3930b960791b604482015260640161057a565b6000546001600160a01b03908116908216036109305760405162461bcd60e51b815260206004820152601360248201527221b0b73737ba103932b6b7bb329030b236b4b760691b604482015260640161057a565b6001600160a01b038116600081815260026020526040808220805460ff19169055517f81cb97a294b3ff5f91ef4048b3173c7f8f6943d9750add2071199061165e5f579190a250565b815160208184018101805160038252928201918501919091209190528054829081106109a457600080fd5b60009182526020909120600390910201805460018201546002909201546001600160a01b0391821694509116915083565b6000815111610a1d5760405162461bcd60e51b8152602060048201526014602482015273486173682063616e6e6f7420626520656d70747960601b604482015260640161057a565b60006001600160a01b0316600182604051610a38919061140f565b908152604051908190036020019020546001600160a01b031614610a9e5760405162461bcd60e51b815260206004820152601760248201527f50726f706572747920616c726561647920657869737473000000000000000000604482015260640161057a565b3360009081526002602052604090205460ff1615610b095760405162461bcd60e51b815260206004820152602260248201527f5265676973747261722063616e6e6f742072656769737465722070726f706572604482015261747960f01b606482015260840161057a565b60408051606081018252338152602081018390526000818301529051600190610b3390849061140f565b90815260405160209181900382019020825181546001600160a01b0319166001600160a01b03909116178155908201516001820190610b7290826114d8565b50604091820151600291909101805460ff1916911515919091179055513390600590610b9f90849061140f565b90815260405190819003602001902080546001600160a01b03929092166001600160a01b0319909216919091179055600480546001810182556000919091527f8a35acfbc15ff81a39ae7d344fd709f28e8600b4aa8c65c6b64bfe7fe36bd19b01610c0a82826114d8565b50600381604051610c1b919061140f565b908152604080516020928190038301812060608201835260008083523385840181815242858701908152845460018082018755958552979093209451600390970290940180546001600160a01b03199081166001600160a01b03988916178255945193810180549095169390961692909217909255905160029093019290925551610ca790839061140f565b604051908190038120907f86fe26a4c2c4da61049e3786668239929ce2f0465c18b8c655ad4cd126df9ea990600090a37f16674959d33ed703d9d73aff9b759492e53d5f750930a4b5393c1393a77fba95338260405161069c929190611465565b60048181548110610d1857600080fd5b906000526020600020016000915090508054610d339061142b565b80601f0160208091040260200160405190810160405280929190818152602001828054610d5f9061142b565b8015610dac5780601f10610d8157610100808354040283529160200191610dac565b820191906000526020600020905b815481529060010190602001808311610d8f57829003601f168201915b505050505081565b60006001600160a01b0316600183604051610dcf919061140f565b908152604051908190036020019020546001600160a01b031603610e2a5760405162461bcd60e51b8152602060048201526012602482015271141c9bdc195c9d1e481b9bdd08199bdd5b9960721b604482015260640161057a565b336001600160a01b0316600183604051610e44919061140f565b908152604051908190036020019020546001600160a01b031614610e9f5760405162461bcd60e51b815260206004820152601260248201527127b7363c9031bab93932b73a1037bbb732b960711b604482015260640161057a565b6001600160a01b038116610ee95760405162461bcd60e51b815260206004820152601160248201527024b73b30b634b2103732bb9037bbb732b960791b604482015260640161057a565b336001600160a01b03821603610f315760405162461bcd60e51b815260206004820152600d60248201526c20b63932b0b23c9037bbb732b960991b604482015260640161057a565b6000600183604051610f43919061140f565b908152604051908190036020018120546001600160a01b031691508290600190610f6e90869061140f565b90815260405190819003602001812080546001600160a01b03939093166001600160a01b031990931692909217909155600090600190610faf90869061140f565b908152604051908190036020018120600201805492151560ff19909316929092179091558290600590610fe390869061140f565b90815260405190819003602001812080546001600160a01b03939093166001600160a01b03199093169290921790915560039061102190859061140f565b90815260408051602092819003830181206060820183526001600160a01b038581168352868116858401908152428486019081528354600180820186556000958652979094209451600390940290940180546001600160a01b0319908116948416949094178155905195810180549093169590911694909417905551600290920191909155517ff1c11f7d3dd97ccd279bec608bdbf0c29cc4d9a8be965b504dd2020b3c69ca0f906110d890839085908790611598565b60405180910390a1505050565b634e487b7160e01b600052604160045260246000fd5b600082601f83011261110c57600080fd5b813567ffffffffffffffff80821115611127576111276110e5565b604051601f8301601f19908116603f0116810190828211818310171561114f5761114f6110e5565b8160405283815286602085880101111561116857600080fd5b836020870160208301376000602085830101528094505050505092915050565b60006020828403121561119a57600080fd5b813567ffffffffffffffff8111156111b157600080fd5b6111bd848285016110fb565b949350505050565b602080825282518282018190526000919060409081850190868401855b8281101561121d57815180516001600160a01b03908116865287820151168786015285015185850152606090930192908501906001016111e2565b5091979650505050505050565b60005b8381101561124557818101518382015260200161122d565b50506000910152565b6000815180845261126681602086016020860161122a565b601f01601f19169290920160200192915050565b6000602080830181845280855180835260408601915060408160051b870101925083870160005b828110156112cf57603f198886030184526112bd85835161124e565b945092850192908501906001016112a1565b5092979650505050505050565b80356001600160a01b03811681146112f357600080fd5b919050565b60006020828403121561130a57600080fd5b611313826112dc565b9392505050565b6001600160a01b038416815260606020820181905260009061133e9083018561124e565b90508215156040830152949350505050565b6000806040838503121561136357600080fd5b823567ffffffffffffffff81111561137a57600080fd5b611386858286016110fb565b95602094909401359450505050565b6000602082840312156113a757600080fd5b5035919050565b602081526000611313602083018461124e565b600080604083850312156113d457600080fd5b823567ffffffffffffffff8111156113eb57600080fd5b6113f7858286016110fb565b925050611406602084016112dc565b90509250929050565b6000825161142181846020870161122a565b9190910192915050565b600181811c9082168061143f57607f821691505b60208210810361145f57634e487b7160e01b600052602260045260246000fd5b50919050565b6001600160a01b03831681526040602082018190526000906111bd9083018461124e565b601f8211156114d357600081815260208120601f850160051c810160208610156114b05750805b601f850160051c820191505b818110156114cf578281556001016114bc565b5050505b505050565b815167ffffffffffffffff8111156114f2576114f26110e5565b61150681611500845461142b565b84611489565b602080601f83116001811461153b57600084156115235750858301515b600019600386901b1c1916600185901b1785556114cf565b600085815260208120601f198616915b8281101561156a5788860151825594840194600190910190840161154b565b50858210156115885787850151600019600388901b60f8161c191681555b5050505050600190811b01905550565b6001600160a01b038481168252831660208201526060604082018190526000906115c49083018461124e565b9594505050505056fea26469706673582212206f2e34ad067c1c1c4fe2b57265163bb258ae89e2fc3e5dea97853dc865da058d64736f6c63430008140033",
  "linkReferences": {},
  "deployedLinkReferences": {}
}