{
  "_format": "hh-sol-artifact-1",
  "contractName": "eVault",
  "sourceName": "contracts/eVault.sol",
  "abi": [
    {
      "inputs": [
        {
          "internalType": "address",
          "name": "_registrar",
          "type": "address"
        },
        {
          "internalType": "address",
          "name": "_notary",
          "type": "address"
        },
        {
          "internalType": "address",
          "name": "_authority",
          "type": "address"
        }
      ],
      "stateMutability": "nonpayable",
      "type": "constructor"
    },
    {
      "anonymous": false,
      "inputs": [
        {
          "indexed": true,
          "internalType": "uint256",
          "name": "propertyId",
          "type": "uint256"
        },
        {
          "indexed": true,
          "internalType": "address",
          "name": "bank",
          "type": "address"
        }
      ],
      "name": "BankVerified",
      "type": "event"
    },
    {
      "anonymous": false,
      "inputs": [
        {
          "indexed": true,
          "internalType": "uint256",
          "name": "propertyId",
          "type": "uint256"
        },
        {
          "indexed": true,
          "internalType": "address",
          "name": "approver",
          "type": "address"
        },
        {
          "indexed": false,
          "internalType": "uint256",
          "name": "approvalCount",
          "type": "uint256"
        }
      ],
      "name": "PropertyApproved",
      "type": "event"
    },
    {
      "anonymous": false,
      "inputs": [
        {
          "indexed": true,
          "internalType": "uint256",
          "name": "propertyId",
          "type": "uint256"
        },
        {
          "indexed": true,
          "internalType": "address",
          "name": "owner",
          "type": "address"
        }
      ],
      "name": "PropertyRegistered",
      "type": "event"
    },
    {
      "anonymous": false,
      "inputs": [
        {
          "indexed": true,
          "internalType": "uint256",
          "name": "propertyId",
          "type": "uint256"
        },
        {
          "indexed": true,
          "internalType": "address",
          "name": "owner",
          "type": "address"
        },
        {
          "indexed": false,
          "internalType": "string",
          "name": "ipfsHash",
          "type": "string"
        }
      ],
      "name": "PropertyRequested",
      "type": "event"
    },
    {
      "anonymous": false,
      "inputs": [
        {
          "indexed": true,
          "internalType": "uint256",
          "name": "propertyId",
          "type": "uint256"
        },
        {
          "indexed": true,
          "internalType": "address",
          "name": "previousOwner",
          "type": "address"
        },
        {
          "indexed": true,
          "internalType": "address",
          "name": "newOwner",
          "type": "address"
        }
      ],
      "name": "PropertyTransferred",
      "type": "event"
    },
    {
      "inputs": [],
      "name": "admin",
      "outputs": [
        {
          "internalType": "address",
          "name": "",
          "type": "address"
        }
      ],
      "stateMutability": "view",
      "type": "function"
    },
    {
      "inputs": [
        {
          "internalType": "uint256",
          "name": "propertyId",
          "type": "uint256"
        }
      ],
      "name": "approveProperty",
      "outputs": [],
      "stateMutability": "nonpayable",
      "type": "function"
    },
    {
      "inputs": [
        {
          "internalType": "uint256",
          "name": "propertyId",
          "type": "uint256"
        }
      ],
      "name": "getOwnershipHistory",
      "outputs": [
        {
          "components": [
            {
              "internalType": "address",
              "name": "owner",
              "type": "address"
            },
            {
              "internalType": "uint256",
              "name": "timestamp",
              "type": "uint256"
            }
          ],
          "internalType": "struct eVault.OwnershipRecord[]",
          "name": "",
          "type": "tuple[]"
        }
      ],
      "stateMutability": "view",
      "type": "function"
    },
    {
      "inputs": [
        {
          "internalType": "uint256",
          "name": "propertyId",
          "type": "uint256"
        }
      ],
      "name": "getProperty",
      "outputs": [
        {
          "components": [
            {
              "internalType": "uint256",
              "name": "id",
              "type": "uint256"
            },
            {
              "internalType": "address",
              "name": "owner",
              "type": "address"
            },
            {
              "internalType": "string",
              "name": "ipfsHash",
              "type": "string"
            },
            {
              "internalType": "bool",
              "name": "registrarApproved",
              "type": "bool"
            },
            {
              "internalType": "bool",
              "name": "notaryApproved",
              "type": "bool"
            },
            {
              "internalType": "bool",
              "name": "authorityApproved",
              "type": "bool"
            },
            {
              "internalType": "uint256",
              "name": "approvalCount",
              "type": "uint256"
            },
            {
              "internalType": "enum eVault.Status",
              "name": "status",
              "type": "uint8"
            },
            {
              "internalType": "bool",
              "name": "bankVerified",
              "type": "bool"
            }
          ],
          "internalType": "struct eVault.Property",
          "name": "",
          "type": "tuple"
        }
      ],
      "stateMutability": "view",
      "type": "function"
    },
    {
      "inputs": [
        {
          "internalType": "string",
          "name": "hash",
          "type": "string"
        }
      ],
      "name": "getPropertyByHash",
      "outputs": [
        {
          "components": [
            {
              "internalType": "uint256",
              "name": "id",
              "type": "uint256"
            },
            {
              "internalType": "address",
              "name": "owner",
              "type": "address"
            },
            {
              "internalType": "string",
              "name": "ipfsHash",
              "type": "string"
            },
            {
              "internalType": "bool",
              "name": "registrarApproved",
              "type": "bool"
            },
            {
              "internalType": "bool",
              "name": "notaryApproved",
              "type": "bool"
            },
            {
              "internalType": "bool",
              "name": "authorityApproved",
              "type": "bool"
            },
            {
              "internalType": "uint256",
              "name": "approvalCount",
              "type": "uint256"
            },
            {
              "internalType": "enum eVault.Status",
              "name": "status",
              "type": "uint8"
            },
            {
              "internalType": "bool",
              "name": "bankVerified",
              "type": "bool"
            }
          ],
          "internalType": "struct eVault.Property",
          "name": "",
          "type": "tuple"
        }
      ],
      "stateMutability": "view",
      "type": "function"
    },
    {
      "inputs": [
        {
          "internalType": "string",
          "name": "",
          "type": "string"
        }
      ],
      "name": "hashToPropertyId",
      "outputs": [
        {
          "internalType": "uint256",
          "name": "",
          "type": "uint256"
        }
      ],
      "stateMutability": "view",
      "type": "function"
    },
    {
      "inputs": [],
      "name": "localAuthority",
      "outputs": [
        {
          "internalType": "address",
          "name": "",
          "type": "address"
        }
      ],
      "stateMutability": "view",
      "type": "function"
    },
    {
      "inputs": [],
      "name": "notary",
      "outputs": [
        {
          "internalType": "address",
          "name": "",
          "type": "address"
        }
      ],
      "stateMutability": "view",
      "type": "function"
    },
    {
      "inputs": [
        {
          "internalType": "uint256",
          "name": "",
          "type": "uint256"
        },
        {
          "internalType": "uint256",
          "name": "",
          "type": "uint256"
        }
      ],
      "name": "ownershipHistory",
      "outputs": [
        {
          "internalType": "address",
          "name": "owner",
          "type": "address"
        },
        {
          "internalType": "uint256",
          "name": "timestamp",
          "type": "uint256"
        }
      ],
      "stateMutability": "view",
      "type": "function"
    },
    {
      "inputs": [
        {
          "internalType": "uint256",
          "name": "",
          "type": "uint256"
        }
      ],
      "name": "properties",
      "outputs": [
        {
          "internalType": "uint256",
          "name": "id",
          "type": "uint256"
        },
        {
          "internalType": "address",
          "name": "owner",
          "type": "address"
        },
        {
          "internalType": "string",
          "name": "ipfsHash",
          "type": "string"
        },
        {
          "internalType": "bool",
          "name": "registrarApproved",
          "type": "bool"
        },
        {
          "internalType": "bool",
          "name": "notaryApproved",
          "type": "bool"
        },
        {
          "internalType": "bool",
          "name": "authorityApproved",
          "type": "bool"
        },
        {
          "internalType": "uint256",
          "name": "approvalCount",
          "type": "uint256"
        },
        {
          "internalType": "enum eVault.Status",
          "name": "status",
          "type": "uint8"
        },
        {
          "internalType": "bool",
          "name": "bankVerified",
          "type": "bool"
        }
      ],
      "stateMutability": "view",
      "type": "function"
    },
    {
      "inputs": [],
      "name": "propertyCounter",
      "outputs": [
        {
          "internalType": "uint256",
          "name": "",
          "type": "uint256"
        }
      ],
      "stateMutability": "view",
      "type": "function"
    },
    {
      "inputs": [],
      "name": "registrar",
      "outputs": [
        {
          "internalType": "address",
          "name": "",
          "type": "address"
        }
      ],
      "stateMutability": "view",
      "type": "function"
    },
    {
      "inputs": [
        {
          "internalType": "string",
          "name": "ipfsHash",
          "type": "string"
        }
      ],
      "name": "requestRegistration",
      "outputs": [],
      "stateMutability": "nonpayable",
      "type": "function"
    },
    {
      "inputs": [
        {
          "internalType": "uint256",
          "name": "propertyId",
          "type": "uint256"
        },
        {
          "internalType": "address",
          "name": "newOwner",
          "type": "address"
        }
      ],
      "name": "transferProperty",
      "outputs": [],
      "stateMutability": "nonpayable",
      "type": "function"
    }
  ],
  "bytecode": "0x60806040523480156200001157600080fd5b50604051620015ee380380620015ee833981016040819052620000349162000184565b6001600160a01b038316620000845760405162461bcd60e51b815260206004820152601160248201527024b73b30b634b2103932b3b4b9ba3930b960791b60448201526064015b60405180910390fd5b6001600160a01b038216620000cd5760405162461bcd60e51b815260206004820152600e60248201526d496e76616c6964206e6f7461727960901b60448201526064016200007b565b6001600160a01b038116620001195760405162461bcd60e51b8152602060048201526011602482015270496e76616c696420617574686f7269747960781b60448201526064016200007b565b600080546001600160a01b03199081163317909155600180546001600160a01b03958616908316179055600280549385169382169390931790925560038054919093169116179055620001ce565b80516001600160a01b03811681146200017f57600080fd5b919050565b6000806000606084860312156200019a57600080fd5b620001a58462000167565b9250620001b56020850162000167565b9150620001c56040850162000167565b90509250925092565b61141080620001de6000396000f3fe608060405234801561001057600080fd5b50600436106100ea5760003560e01c8063d090e47e1161008c578063f1dbaccb11610066578063f1dbaccb14610214578063f7b1080814610234578063f851a4401461025c578063ff3562371461026f57600080fd5b8063d090e47e146101e5578063da52ba09146101ee578063e9b66f8c1461020157600080fd5b80639d54c79d116100c85780639d54c79d14610178578063a00977bf1461018b578063aecfa55d146101a0578063c9cf2adc146101b357600080fd5b80632b20e397146100ef57806332665ffb1461011f5780633b45149c1461013f575b600080fd5b600154610102906001600160a01b031681565b6040516001600160a01b0390911681526020015b60405180910390f35b61013261012d366004610ed6565b610282565b6040516101169190610f77565b61016a61014d366004611033565b805160208183018101805160058252928201919093012091525481565b604051908152602001610116565b600254610102906001600160a01b031681565b61019e610199366004611033565b610413565b005b6101326101ae366004611033565b61060d565b6101c66101c13660046110e4565b6107de565b604080516001600160a01b039093168352602083019190915201610116565b61016a60075481565b600354610102906001600160a01b031681565b61019e61020f366004610ed6565b610824565b610227610222366004610ed6565b610a85565b6040516101169190611106565b610247610242366004610ed6565b610b31565b6040516101169998979695949392919061115e565b600054610102906001600160a01b031681565b61019e61027d3660046111ce565b610c16565b61028a610e89565b60008211801561029c57506007548211155b6102c15760405162461bcd60e51b81526004016102b89061120a565b60405180910390fd5b6000828152600460209081526040918290208251610120810184528154815260018201546001600160a01b031692810192909252600281018054929391929184019161030c90611234565b80601f016020809104026020016040519081016040528092919081815260200182805461033890611234565b80156103855780601f1061035a57610100808354040283529160200191610385565b820191906000526020600020905b81548152906001019060200180831161036857829003601f168201915b505050918352505060038281015460ff8082161515602085015261010082048116151560408501526201000090910481161515606084015260048401546080840152600584015460a09093019216908111156103e3576103e3610f3f565b60038111156103f4576103f4610f3f565b815260059190910154610100900460ff16151560209091015292915050565b60008151116104595760405162461bcd60e51b815260206004820152601260248201527112541194c81a185cda081c995c5d5a5c995960721b60448201526064016102b8565b60016007600082825461046c919061126e565b9091555050604080516101208101825260075481523360208201529081018290526000606082018190526080820181905260a0820181905260c0820181905260e082019081526000602091820181905260075481526004825260409081902083518155918301516001830180546001600160a01b0319166001600160a01b03909216919091179055820151600282019061050690826112e4565b50606082015160038083018054608086015160a08701511515620100000262ff0000199115156101000261ff00199615159690961661ffff199093169290921794909417939093169290921790915560c0830151600483015560e08301516005830180549192909160ff191690600190849081111561058757610587610f3f565b0217905550610100918201516005918201805461ff001916911515909302179091556007546040519091906105bd9084906113a4565b9081526040519081900360200181209190915560075433917fa95050ffc0a5ac64c999c2cce8f068b4db40b47c2844cf66acdd9affb4403065906106029085906113c0565b60405180910390a350565b610615610e89565b600060058360405161062791906113a4565b908152602001604051809103902054905060008111801561064a57506007548111155b61068b5760405162461bcd60e51b8152602060048201526012602482015271141c9bdc195c9d1e481b9bdd08199bdd5b9960721b60448201526064016102b8565b6000818152600460209081526040918290208251610120810184528154815260018201546001600160a01b03169281019290925260028101805492939192918401916106d690611234565b80601f016020809104026020016040519081016040528092919081815260200182805461070290611234565b801561074f5780601f106107245761010080835404028352916020019161074f565b820191906000526020600020905b81548152906001019060200180831161073257829003601f168201915b505050918352505060038281015460ff8082161515602085015261010082048116151560408501526201000090910481161515606084015260048401546080840152600584015460a09093019216908111156107ad576107ad610f3f565b60038111156107be576107be610f3f565b815260059190910154610100900460ff1615156020909101529392505050565b600660205281600052604060002081815481106107fa57600080fd5b6000918252602090912060029091020180546001909101546001600160a01b039091169250905082565b60008111801561083657506007548111155b6108525760405162461bcd60e51b81526004016102b89061120a565b60008181526004602052604090206001546001600160a01b031633036108db57600381015460ff16156108c75760405162461bcd60e51b815260206004820152601a60248201527f52656769737472617220616c726561647920617070726f76656400000000000060448201526064016102b8565b60038101805460ff19166001179055610a22565b6002546001600160a01b0316330361095d576003810154610100900460ff16156109475760405162461bcd60e51b815260206004820152601760248201527f4e6f7461727920616c726561647920617070726f76656400000000000000000060448201526064016102b8565b60038101805461ff001916610100179055610a22565b6003546001600160a01b031633036109e257600381015462010000900460ff16156109ca5760405162461bcd60e51b815260206004820152601a60248201527f417574686f7269747920616c726561647920617070726f76656400000000000060448201526064016102b8565b60038101805462ff0000191662010000179055610a22565b60405162461bcd60e51b81526020600482015260156024820152742ab730baba3437b934bd32b21030b8383937bb32b960591b60448201526064016102b8565b6001816004016000828254610a37919061126e565b90915550506004810154604051908152339083907fa5fe70258b1f106acd3d8423aa9b80de69e351344ecc0ec36dee26faff5225e59060200160405180910390a3610a8182610d8c565b5050565b6060600082118015610a9957506007548211155b610ab55760405162461bcd60e51b81526004016102b89061120a565b600082815260066020908152604080832080548251818502810185019093528083529193909284015b82821015610b26576000848152602090819020604080518082019091526002850290910180546001600160a01b03168252600190810154828401529083529092019101610ade565b505050509050919050565b60046020526000908152604090208054600182015460028301805492936001600160a01b0390921692610b6390611234565b80601f0160208091040260200160405190810160405280929190818152602001828054610b8f90611234565b8015610bdc5780601f10610bb157610100808354040283529160200191610bdc565b820191906000526020600020905b815481529060010190602001808311610bbf57829003601f168201915b5050505060038301546004840154600590940154929360ff8083169461010080850483169550620100009094048216938282169291041689565b600082118015610c2857506007548211155b610c445760405162461bcd60e51b81526004016102b89061120a565b6001600160a01b038116610c8a5760405162461bcd60e51b815260206004820152600d60248201526c24b73b30b634b21037bbb732b960991b60448201526064016102b8565b600082815260046020526040902060018101546001600160a01b03163314610ce95760405162461bcd60e51b815260206004820152601260248201527127b7363c9031bab93932b73a1037bbb732b960711b60448201526064016102b8565b600180820180546001600160a01b038581166001600160a01b03198084168217909455600088815260066020908152604080832081518083018352858152428185019081528254808c018455928652938520905160029092020180549187169190981617875590519590960194909455935191169291839187917f2231fc8bc2c20e26d85d66dc7f13a6b6d535c86d2a4d678bb2de61f5b713608391a450505050565b600081815260046020819052604090912090810154600110610db95760058101805460ff19169055610dd5565b6002816004015410610dd55760058101805460ff191660031790555b8060040154600303610a8157600581018054600260ff199091168117909155600083815260066020908152604080832081518083018352600180880180546001600160a01b039081168452428488019081528554808501875595895296882093519490980290920180546001600160a01b031916938816939093178355935191909301559054905192169184917ff16e2a0ca5373d3b3c5e53640bf2953ea25184f229ba20d421b5fc6a635e394591a35050565b604080516101208101825260008082526020820181905260609282018390529181018290526080810182905260a0810182905260c081018290529060e08201908152600060209091015290565b600060208284031215610ee857600080fd5b5035919050565b60005b83811015610f0a578181015183820152602001610ef2565b50506000910152565b60008151808452610f2b816020860160208601610eef565b601f01601f19169290920160200192915050565b634e487b7160e01b600052602160045260246000fd5b60048110610f7357634e487b7160e01b600052602160045260246000fd5b9052565b602081528151602082015260006020830151610f9e60408401826001600160a01b03169052565b506040830151610120806060850152610fbb610140850183610f13565b91506060850151610fd0608086018215159052565b50608085015180151560a08601525060a085015180151560c08601525060c085015160e085015260e085015161010061100b81870183610f55565b90950151151593019290925250919050565b634e487b7160e01b600052604160045260246000fd5b60006020828403121561104557600080fd5b813567ffffffffffffffff8082111561105d57600080fd5b818401915084601f83011261107157600080fd5b8135818111156110835761108361101d565b604051601f8201601f19908116603f011681019083821181831017156110ab576110ab61101d565b816040528281528760208487010111156110c457600080fd5b826020860160208301376000928101602001929092525095945050505050565b600080604083850312156110f757600080fd5b50508035926020909101359150565b602080825282518282018190526000919060409081850190868401855b8281101561115157815180516001600160a01b03168552860151868501529284019290850190600101611123565b5091979650505050505050565b8981526001600160a01b0389166020820152610120604082018190526000906111898382018b610f13565b9150508715156060830152861515608083015285151560a08301528460c08301526111b760e0830185610f55565b8215156101008301529a9950505050505050505050565b600080604083850312156111e157600080fd5b8235915060208301356001600160a01b03811681146111ff57600080fd5b809150509250929050565b60208082526010908201526f496e76616c69642070726f706572747960801b604082015260600190565b600181811c9082168061124857607f821691505b60208210810361126857634e487b7160e01b600052602260045260246000fd5b50919050565b8082018082111561128f57634e487b7160e01b600052601160045260246000fd5b92915050565b601f8211156112df57600081815260208120601f850160051c810160208610156112bc5750805b601f850160051c820191505b818110156112db578281556001016112c8565b5050505b505050565b815167ffffffffffffffff8111156112fe576112fe61101d565b6113128161130c8454611234565b84611295565b602080601f831160018114611347576000841561132f5750858301515b600019600386901b1c1916600185901b1785556112db565b600085815260208120601f198616915b8281101561137657888601518255948401946001909101908401611357565b50858210156113945787850151600019600388901b60f8161c191681555b5050505050600190811b01905550565b600082516113b6818460208701610eef565b9190910192915050565b6020815260006113d36020830184610f13565b939250505056fea26469706673582212204482801ee39c919ca11b1bba6ee1f383053f05e710ea2032995deef527528f1564736f6c63430008140033",
  "linkReferences": {},
  "deployedLinkReferences": {}
}